S014000050726F6A65637431343034622E737265630E
S214080000087307205D0908005909080059090800FF
S2140800105909080059090800590908000000000095
S2140800200000000000000000000000005909080059
S2140800305909080000000000590908005909080075
S21408004059090800590908005909080059090800FB
S21408005059090800590908005909080059090800EB
S214080060590908005909080000000000CD070800D3
S214080070E1070800F5070800090808000000000066
S2140800800000000059090800590908005909080025
S21408009059090800590908005909080059090800AB
S2140800A05909080000000000590908009D020800C8
S2140800B0590908005909080059090800590908008B
S2140800C0590908005909080059090800590908007B
S2140800D0590908005909080059090800590908006B
S2140800E0590908005909080059090800590908005B
S2140800F05909080010B5054C237833B9044B13B1D9
S2140801000448AFF300800123237010BD3404072091
S214080110000000002C0D08000C4B43B10C4810B52D
S2140801200C49AFF300800C48036823B910BD0A4891
S214080130036833B97047094B002BF7D0BDE8104069
S2140801401847064B002BF5D0184700BF00000000E4
S2140801502C0D0800380407202C0D080000000000AD
S21408016038B525200E4B98470E4C00230E4A0F49EB
S21408017020460F4DA84700231A46194620460D4D1F
S214080180A847002120460C4B98470A2120460B4BCF
S2140801909847002211462046094B984738BD00BFAD
S2140801A00509080000000C40002D3101007A030AFA
S2140801B019020800690208004D0208008B020800B0
S2140801C05B02080038B526200C4B98470C4C204696
S2140801D00C4B9847002120460B4B984700230122DA
S2140801E011462046094DA84700212046084B984747
S2140801F000212046074B984738BD00BF0509080070
S21408020000800C40390308003F0308007303080009
S2140802105B030800A103080030B40124046000242E
S214080220446040F20225C0F82051C0F80441C0F8E6
S214080230144145685200B1FBF2F2013A120292B23A
S2140802402B431A434260204630BC70474368090176
S21408025001F010011943416070474368D201D2B2D9
S21408026019430A434260704710B44468090601F00F
S214080270706121430A43190701F040511143416058
S21408028010BC7047022303607047012303FA01F18C
S21408029001617047006A7047006B704730B583B0DD
S2140802A000211A481A4B98470190019B4FF080622C
S2140802B0184B1A631848194B9847174D184C284678
S2140802C0A04710F0807FFAD01348164B9847164B75
S2140802D01B68164A22F81300013342F21072934242
S2140802E010D0114A1360104B1A68104B33F81210CE
S2140802F001440F480F4B98474FF08062054B5A63EE
S21408030003B030BD0022084B1A60ECE70000084036
S214080310E503080000100E4000000C4085020800A7
S214080320990208009502080070520720500407201A
S21408033000800C405703080001230360704729B962
S214080340436823F01003436000207047436843F077
S21408035010034360F8E7016270474368012901D932
S2140803600120704723F4981343EA014141600020B6
S214080370704710B4446824F07C5424F47F4409027F
S21408038089B221434AB921F400111B0603F07C53B5
S2140803900B434360002010BC704741F40011F4E79B
S2140803A0012901D901207047012303FA01F10161EF
S2140803B00020704710B489014318022444504FF0B7
S2140803C0FF319962196A5A6010BC70478901052383
S2140803D04350704700EB8111CA61704700EB8111EA
S2140803E04A62704700EB8111086A704710B51B20F7
S2140803F00E4B98470E4C4FF48042002120460D4B7A
S214080400984741F26802002120460B4B98474FF068
S21408041000620A4B1A60102200212046084B9847B3
S21408042000212046074B984710BD00BF0509080065
S21408043000000840B5030800D503080000E100E006
S214080440DD030800CD03080008B50D4B98470D4B93
S21408045098470B200C4CA0470C20A0470D20A0471F
S2140804600E20A047094B4FF080621A61C3F8A020FF
S214080470074B9847074B9847074B9847FEE700BF38
S2140804809D040800FD0408000509080000100E4039
S21408049061010800C5010800ED03080010B50D4805
S2140804A00D4B98473E2100200C4B98470C4CA04714
S2140804B00028FCD00B4B98470B4A0C4B9A620C4C06
S2140804C0A0470028FCD010200A4B98470A4B9847AC
S2140804D010BD00BF00BD01050D0B0800810808000F
S2140804E0D5080800E5080800013F0D2000060E4064
S2140804F0F50808001D080800F509080010B54FF4AF
S2140805000042174B5A600B20164CA0470C20A047F9
S2140805100D20A0470E20A0474FF060513B20124CFC
S214080520A0474FF060515520A0474FF06051562025
S214080530A0470E496820A0470D495C20A0474FF009
S21408054000624FF440710B480B4B98474FF0006120
S2140805502B20A0474FF000612A20A04710BD00BFFF
S214080560501A0E40050908001D06080079000028E4
S21408057001000028000E0E40ED0608004264B1F1A6
S214080580805F16D00BD849B1B1F1006F05D1036F63
S214080590016F0B4023EA0203036742607047B1F11C
S2140805A0405FFBD0B1F1605FF8D0B1F1205FF4D1C5
S2140805B07047036F13430367EFE7416412F0010FB8
S2140805C014BF4166016612F00A0F14BF0162416249
S2140805D012F0020F07D112F0080F18BFC0F88010EB
S2140805E0416101607047C0F88010F9E710B4019CBB
S2140805F0416444B9016643B1016542B9416301618A
S214080600016010BC70474166F5E74165F5E7016390
S214080610F5E7C06C7047806C7047000070B582B014
S2140806200D46430903F5001303F207735C0201F055
S214080630F043B3F1205F31D016D8B3F1006F1BD06A
S214080640B3F1805F16D100F01F00012686403246BF
S2140806504FF080512046224B984715F0010F14BFE3
S21408066066662666012017E0B3F1405F21D0B3F135
S214080670605F1ED000200FE000F01F0001268640B5
S21408068032464FF000612046154B984715F0010F8B
S21408069014BF66662666012002B070BD00F01F0112
S2140806A001262A4606FA01F120460E4B98473046A0
S2140806B0F2E705F0605200F01F01012605EA06037E
S2140806C00093C5F38003B2F1605F14BF00220122D5
S2140806D006FA01F12046044CA0473046DCE700BF86
S2140806E07D050800BB050800ED05080070B582B05A
S2140806F005460E46144602F0F043B3F1205F27D0B5
S21408070011D8B3F1006F16D0B3F1805F11D10A4645
S2140807104FF08051194B984714F0010F14BF6E66BE
S2140807202E66012012E0B3F1405F15D0B3F1605F8A
S21408073012D000200AE00A464FF000610F4B984797
S21408074014F0010F14BF6E662E66012002B070BD4D
S2140807500B4B98470120F9E704F0605204F00103B8
S2140807600093C4F38003B2F1605F14BF0022012235
S21408077031462846034CA0470120E7E77D050800D8
S214080780BB050800ED050800F8B504460E460C4BF8
S2140807909847054620460B4B984705400FD00A4C0D
S2140807A001E010345DB12068B042FAD16168294290
S2140807B0F7D0E3689847636825EA0305F1E7F8BDCC
S2140807C013060800170608007452072008B50B2100
S2140807D00148024B984708BD000E0E4089070800DE
S2140807E008B50C210148024B984708BD00100E407A
S2140807F08907080008B50D210148024B984708BD2F
S21408080000120E408907080008B50E210148024B61
S214080810984708BD00140E4089070800174A136B4E
S21408082023F0700318431063936E13F0080F0AD171
S2140808304FF4006311498A6E12F0080F03D1013B8A
S214080840F9D1012070470D4A136B23F0030343F0D8
S21408085002031363936E13F0080F0AD14FF4006374
S21408086006498A6E12F0080F05D1013BF9D101201E
S2140808707047002070470020704700BF00060E40F3
S214080880C8B9114A136A090289B223F45C1323F023
S214080890030343F45C1343F001030B431362936EA4
S2140808A013F0010FFBD0084A136A43F09B7343F416
S2140808B080331362704704490B6A044A1A40044B93
S2140808C013430B62704700BF00060E40FCFFC8FECD
S2140808D002003701024B986E00F48030704700BF64
S2140808E000060E404FF00052014B9A62704700BF58
S2140808F000060E40024B986E00F00200704700BFDC
S21408090000060E402C281ED81F280CD8114B9A69B2
S21408091001238340934318D0012303FA00F00D4BBC
S21408092018610020704720380A4BD3F808210123A5
S214080930834093430BD0012303FA00F0054BC3F81A
S21408094000010020704701207047002070470020F3
S214080950704700BF00060E40FEE7000008B51C4BB7
S2140809601C4A9A4210D01C4B194A9A420CD2013B98
S2140809709B1A23F0030304331344164951F8040B57
S21408098042F8040B9A42F9D1144B154A9A420AD2F5
S214080990013B9B1A23F0030304331344002142F857
S2140809A0041B9342FBD10F4B23F0604222F07F02D8
S2140809B00D498A6003F16043B3F5801F03D28B6844
S2140809C043F000538B60094B9847094B9847FEE75E
S2140809D0000007202C0D08003404072008530720C1
S2140809E0340407200000080000ED00E0950B08001E
S2140809F0490408003D4B1B6B03F00303032B0ED87A
S214080A00DFE803F0021C3838394B5B6913F0800FB7
S214080A1014BF4FF400424FF4FA42364B1A60334B79
S214080A201B6B03F07003702B57D0304B1A6B314991
S214080A30C2F302120B68D3400B6070472B4B1B6A3D
S214080A4013F0807F03D02C4A2A4B1A60E7E72B4A1C
S214080A50284B1A60254B1B6A03F07003102B05D031
S214080A60202BDCD1244A234B1A60D8E7244A214B92
S214080A701A60D4E71D4B1B6A13F0807F0CD01E4A01
S214080A801C4B1A60194B1B6B03F00303022B16D082
S214080A901C4A184B1A60C2E7184A164B1A60134BC2
S214080AA01B6A03F07003102B05D0202BEAD1124ADC
S214080AB0104B1A60E6E7124A0E4B1A60E2E70B4A3A
S214080AC0916A926A0B48C1F30A41036801FB033333
S214080AD0D2B2B3FBF2F30360A1E7064A13680A49E9
S214080AE0A1FB03135B081360704700BF00060E40A7
S214080AF0101A0E4000000720001BB70000093D0032
S214080B0000127A00001C4E0EABAAAAAA1B4B9842EB
S214080B1015D91B4B984219D91A4B98421ED91A4B0D
S214080B20984223D9194B984294BF4FF480634FF4E8
S214080B30A063174A136002F500721360704700231B
S214080B40134A136002F50072136070474FF48073FF
S214080B500F4A136002F50072136070474FF4007373
S214080B600B4A136002F50072136070474FF4407327
S214080B70074A136002F5007213607047BFEA210146
S214080B807FF0FA02FF8FD003FFB3C4047F4A5D05E7
S214080B90000A0E4070B50F4E0F4D761BB61018BFE4
S214080BA0002405D0013455F8043B9847A642F9D1ED
S214080BB00A4E0B4D00F0A8F8761BB61018BF002496
S214080BC006D0013455F8043B9847A642F9D170BDC3
S214080BD070BD00BF140D0800140D08001C0D080099
S214080BE0140D0800024B13B1024800F005B8704710
S214080BF000000000050C0800002301461A461846A7
S214080C0000F01EB838B50A4C0A4D641BA4100AD06A
S214080C1004F18043013B05EB8305013C55F8043994
S214080C209847002CF9D1BDE8384000F077B800BFE7
S214080C302C0D0800280D0800704700BF704700BF3D
S214080C402DE9F8432C4D0646286898460F469146E7
S214080C50FFF7F2FF294B1C68D4F84831002B3ED02A
S214080C605A681F2A1CDC02F1010E76B1012103EB3B
S214080C708204C4F88890D3F8880191400843022E6D
S214080C80C3F88801C4F8088123D00232C3F804E008
S214080C90286843F82270FFF7D1FF0020BDE8F883E4
S214080CA0174B0BB34FF4C870AFF300800346D8B1A8
S214080CB00020D4F848114FF0010E5860196002461B
S214080CC0C4F84831C3F88801C3F88C01002EDCD07C
S214080CD0CCE7D3F88C010143C3F88C11D5E704F5AB
S214080CE0A673C4F84831BBE72868FFF7A7FF4FF09C
S214080CF0FF30BDE8F88300BF30040720040D080065
S214080D000000000008000720F8B500BFF8BC08BCC3
S214080D109E467047E50B080019010800F8B500BFA5
S210080D20F8BC08BC9E467047F5000800AA
S214080D2C00093D000000000000000000F402072047
S214080D3C5C030720C4030720000000000000000026
S214080D4C000000000000000000000000000000008A
S214080D5C000000000000000000000000000000007A
S214080D6C000000000000000000000000000000006A
S214080D7C000000000000000000000000000000005A
S214080D8C000000000000000000000000000000004A
S214080D9C000000000000000000000000000000003A
S214080DAC000000000000000000000000000000002A
S214080DBC000000000000000000000000000000001A
S214080DCC000000000000000000000000000000000A
S214080DDC01000000000000000E33CDAB34126DE6A7
S214080DECECDE05000B000000000000000000000010
S214080DFC00000000000000000000000000000000DA
S214080E0C00000000000000000000000000000000C9
S214080E1C00000000000000000000000000000000B9
S214080E2C00000000000000000000000000000000A9
S20808115CE452072025
S80408095D8D
